:020000040000FA
:060000000A128A110C280F
:10000800FE00030EF1000A08F2000A128A11832882
:100018000A128A110F28F601F701F801F901830184
:100028000A128A1117280A128A1199200A128A11AB
:1000380030300A128A1169200A128A1183120313B6
:100048000618272828282A28F801F80A86182D28AB
:100058002E283028F701F70A061C332834284628AA
:100068007803031D3828392846280730F5007D30E5
:10007800F400F40B3D28F50B3D280130F40074081A
:10008800F907F80183120313861C4B284C285C28B7
:100098007703031D502851285C280730F5007D3070
:1000A800F400F40B5528F50B55280130F902F70137
:1000B80079080F39F4007408F900790883120313DA
:1000C800850022280A128A110C28F3007308831667
:1000D8000313930036308312031394008030831681
:1000E8000313940001309100871507168B170B171F
:1000F800831203138C11831603138C1508008312C3
:1001080003138C1D88288928922814121308F000DC
:100118007008F6008C1179089300141672088A008A
:10012800710E8300FE0E7E0E0900831603178801E8
:100138008901831603130614861483120313860198
:0E01480083160313850183120313850108003B
:04400E00D4E0FFFFFC
:00000001FF
