:020000040000FA
:060000000A128A11F92F1B
:100F36008316031788018901831603130614861482
:100F46008312031386018316031385018312031389
:100F5600850108000A128A119B270A128A11831238
:100F660003130618B72FB82FBA2FF101F10A861806
:100F7600BD2FBE2FC02FF001F00A061CC32FC42FB1
:100F8600D62F7103031DC82FC92FD62F0730F400A3
:100F96007D30F300F30BCD2FF40BCD2F0130F30092
:100FA6007308F207F10183120313861CDB2FDC2F73
:100FB600EC2F7003031DE02FE12FEC2F0730F40018
:100FC6007D30F300F30BE52FF40BE52F0130F20231
:100FD600F00172080F39F3007308F20072088312E9
:100FE60003138500B22F0A128A110028F001F101BD
:0A0FF600F20183010A128A11AD2FE7
:04400E00D4E0FFFFFC
:00000001FF
